{
  "contractName": "Author",
  "abi": [
    {
      "inputs": [
        {
          "internalType": "string",
          "name": "_authorName",
          "type": "string"
        }
      ],
      "payable": false,
      "stateMutability": "nonpayable",
      "type": "constructor"
    },
    {
      "constant": true,
      "inputs": [
        {
          "internalType": "uint256",
          "name": "",
          "type": "uint256"
        }
      ],
      "name": "books",
      "outputs": [
        {
          "internalType": "string",
          "name": "name",
          "type": "string"
        },
        {
          "internalType": "uint256",
          "name": "rate",
          "type": "uint256"
        },
        {
          "internalType": "uint256",
          "name": "soldCount",
          "type": "uint256"
        },
        {
          "internalType": "string",
          "name": "bookHash",
          "type": "string"
        }
      ],
      "payable": false,
      "stateMutability": "view",
      "type": "function"
    },
    {
      "constant": false,
      "inputs": [
        {
          "internalType": "address payable",
          "name": "_address",
          "type": "address"
        }
      ],
      "name": "setAuthorAddress",
      "outputs": [],
      "payable": false,
      "stateMutability": "nonpayable",
      "type": "function"
    },
    {
      "constant": true,
      "inputs": [],
      "name": "getAuthorContractAddress",
      "outputs": [
        {
          "internalType": "address",
          "name": "_address",
          "type": "address"
        }
      ],
      "payable": false,
      "stateMutability": "view",
      "type": "function"
    },
    {
      "constant": true,
      "inputs": [],
      "name": "getAuthorName",
      "outputs": [
        {
          "internalType": "string",
          "name": "_authorName",
          "type": "string"
        }
      ],
      "payable": false,
      "stateMutability": "view",
      "type": "function"
    },
    {
      "constant": false,
      "inputs": [
        {
          "internalType": "uint256",
          "name": "_id",
          "type": "uint256"
        }
      ],
      "name": "buyBookById",
      "outputs": [],
      "payable": false,
      "stateMutability": "nonpayable",
      "type": "function"
    },
    {
      "constant": false,
      "inputs": [
        {
          "internalType": "string",
          "name": "_bookName",
          "type": "string"
        },
        {
          "internalType": "uint256",
          "name": "_rate",
          "type": "uint256"
        },
        {
          "internalType": "string",
          "name": "_hash",
          "type": "string"
        }
      ],
      "name": "registerBook",
      "outputs": [],
      "payable": false,
      "stateMutability": "nonpayable",
      "type": "function"
    },
    {
      "constant": true,
      "inputs": [
        {
          "internalType": "uint256",
          "name": "_id",
          "type": "uint256"
        }
      ],
      "name": "getAuthorBookById",
      "outputs": [
        {
          "internalType": "string",
          "name": "_bookName",
          "type": "string"
        },
        {
          "internalType": "uint256",
          "name": "_rate",
          "type": "uint256"
        },
        {
          "internalType": "uint256",
          "name": "_soldCount",
          "type": "uint256"
        },
        {
          "internalType": "string",
          "name": "_hash",
          "type": "string"
        }
      ],
      "payable": false,
      "stateMutability": "view",
      "type": "function"
    },
    {
      "constant": true,
      "inputs": [],
      "name": "getAllAuthorBooks",
      "outputs": [
        {
          "internalType": "uint256",
          "name": "_totalBooks",
          "type": "uint256"
        }
      ],
      "payable": false,
      "stateMutability": "view",
      "type": "function"
    }
  ],
  "bytecode": "0x608060405234801561001057600080fd5b5060405162000d8638038062000d868339818101604052602081101561003557600080fd5b810190808051604051939291908464010000000082111561005557600080fd5b8382019150602082018581111561006b57600080fd5b825186600182028301116401000000008211171561008857600080fd5b8083526020830192505050908051906020019080838360005b838110156100bc5780820151818401526020810190506100a1565b50505050905090810190601f1680156100e95780820380516001836020036101000a031916815260200191505b50604052505050806001908051906020019061010692919061014e565b5030600260006101000a81548173ffffffffffffffffffffffffffffffffffffffff021916908373ffffffffffffffffffffffffffffffffffffffff160217905550506101f3565b828054600181600116156101000203166002900490600052602060002090601f016020900481019282601f1061018f57805160ff19168380011785556101bd565b828001600101855582156101bd579182015b828111156101bc5782518255916020019190600101906101a1565b5b5090506101ca91906101ce565b5090565b6101f091905b808211156101ec5760008160009055506001016101d4565b5090565b90565b610b8380620002036000396000f3fe608060405234801561001057600080fd5b50600436106100885760003560e01c80637b34d0321161005b5780637b34d032146103d757806393af9733146103f5578063cf87b69914610516578063d099b35f1461054457610088565b80631c09ea961461008d57806367f29d67146101e9578063687440461461026c5780636a509bac1461038d575b600080fd5b6101e7600480360360608110156100a357600080fd5b81019080803590602001906401000000008111156100c057600080fd5b8201836020820111156100d257600080fd5b803590602001918460018302840111640100000000831117156100f457600080fd5b91908080601f016020809104026020016040519081016040528093929190818152602001838380828437600081840152601f19601f820116905080830192505050505050509192919290803590602001909291908035906020019064010000000081111561016157600080fd5b82018360208201111561017357600080fd5b8035906020019184600183028401116401000000008311171561019557600080fd5b91908080601f016020809104026020016040519081016040528093929190818152602001838380828437600081840152601f19601f820116905080830192505050505050509192919290505050610588565b005b6101f161062d565b6040518080602001828103825283818151815260200191508051906020019080838360005b83811015610231578082015181840152602081019050610216565b50505050905090810190601f16801561025e5780820380516001836020036101000a031916815260200191505b509250505060405180910390f35b6102986004803603602081101561028257600080fd5b81019080803590602001909291905050506106cf565b604051808060200185815260200184815260200180602001838103835287818151815260200191508051906020019080838360005b838110156102e85780820151818401526020810190506102cd565b50505050905090810190601f1680156103155780820380516001836020036101000a031916815260200191505b50838103825284818151815260200191508051906020019080838360005b8381101561034e578082015181840152602081019050610333565b50505050905090810190601f16801561037b5780820380516001836020036101000a031916815260200191505b50965050505050505060405180910390f35b61039561083c565b604051808273ffffffffffffffffffffffffffffffffffffffff1673ffffffffffffffffffffffffffffffffffffffff16815260200191505060405180910390f35b6103df610866565b6040518082815260200191505060405180910390f35b6104216004803603602081101561040b57600080fd5b8101908080359060200190929190505050610872565b604051808060200185815260200184815260200180602001838103835287818151815260200191508051906020019080838360005b83811015610471578082015181840152602081019050610456565b50505050905090810190601f16801561049e5780820380516001836020036101000a031916815260200191505b50838103825284818151815260200191508051906020019080838360005b838110156104d75780820151818401526020810190506104bc565b50505050905090810190601f1680156105045780820380516001836020036101000a031916815260200191505b50965050505050505060405180910390f35b6105426004803603602081101561052c57600080fd5b8101908080359060200190929190505050610a34565b005b6105866004803603602081101561055a57600080fd5b81019080803573ffffffffffffffffffffffffffffffffffffffff169060200190929190505050610a65565b005b6000604051806080016040528085815260200184815260200160008152602001838152509080600181540180825580915050906001820390600052602060002090600402016000909192909190915060008201518160000190805190602001906105f3929190610aa9565b5060208201518160010155604082015181600201556060820151816003019080519060200190610624929190610aa9565b50505050505050565b606060018054600181600116156101000203166002900480601f0160208091040260200160405190810160405280929190818152602001828054600181600116156101000203166002900480156106c55780601f1061069a576101008083540402835291602001916106c5565b820191906000526020600020905b8154815290600101906020018083116106a857829003601f168201915b5050505050905090565b600081815481106106dc57fe5b9060005260206000209060040201600091509050806000018054600181600116156101000203166002900480601f0160208091040260200160405190810160405280929190818152602001828054600181600116156101000203166002900480156107885780601f1061075d57610100808354040283529160200191610788565b820191906000526020600020905b81548152906001019060200180831161076b57829003601f168201915b505050505090806001015490806002015490806003018054600181600116156101000203166002900480601f0160208091040260200160405190810160405280929190818152602001828054600181600116156101000203166002900480156108325780601f1061080757610100808354040283529160200191610832565b820191906000526020600020905b81548152906001019060200180831161081557829003601f168201915b5050505050905084565b6000600260009054906101000a900473ffffffffffffffffffffffffffffffffffffffff16905090565b60008080549050905090565b606060008060606000858154811061088657fe5b90600052602060002090600402016000018054600181600116156101000203166002900480601f01602080910402602001604051908101604052809291908181526020018280546001816001161561010002031660029004801561092b5780601f106109005761010080835404028352916020019161092b565b820191906000526020600020905b81548152906001019060200180831161090e57829003601f168201915b505050505093506000858154811061093f57fe5b90600052602060002090600402016001015492506000858154811061096057fe5b90600052602060002090600402016002015491506000858154811061098157fe5b90600052602060002090600402016003018054600181600116156101000203166002900480601f016020809104026020016040519081016040528092919081815260200182805460018160011615610100020316600290048015610a265780601f106109fb57610100808354040283529160200191610a26565b820191906000526020600020905b815481529060010190602001808311610a0957829003601f168201915b505050505090509193509193565b60008181548110610a4157fe5b90600052602060002090600402016002016000815480929190600101919050555050565b80600360006101000a81548173ffffffffffffffffffffffffffffffffffffffff021916908373ffffffffffffffffffffffffffffffffffffffff16021790555050565b828054600181600116156101000203166002900490600052602060002090601f016020900481019282601f10610aea57805160ff1916838001178555610b18565b82800160010185558215610b18579182015b82811115610b17578251825591602001919060010190610afc565b5b509050610b259190610b29565b5090565b610b4b91905b80821115610b47576000816000905550600101610b2f565b5090565b9056fea265627a7a7231582066620528ed77aea6129814045a67782b2f200eaefd27280af643848349a8772a64736f6c63430005100032",
  "source": "pragma solidity 0.5.16;\n\n\ncontract Publisher{\n\n    mapping(address=>Author) private authorsLookup;\n    mapping(string=>address) private findAuthorAddress;\n    mapping(address=>string) private findAuthorName;\n    string[] public allAuthorName;\n    address[] public allAuthorAddress;\n\n    mapping(address=>Buyer) private buyersLookup;\n    mapping(string=>address) private findBuyerAddress;\n    mapping(address=>string) private findBuyerName;\n    string[] public allBuyerName;\n    address[] public allBuyerAddress;\n\n    //modifier to check if given author name is already exist\n    modifier checkExistAuthorName(string memory _authorName){\n        bool _status = false;\n        uint len = allAuthorName.length;\n        for(uint i=0 ; i<len ; i++){\n            if(keccak256(abi.encodePacked(allAuthorName[i])) == keccak256(abi.encodePacked(_authorName))){\n                _status = true;\n            }\n        }\n        require(_status == false, \"This Author name is already registered...Please choose other name :0\");\n        _;\n    }\n\n    //modifier to check if given Reader name is already exist\n    modifier checkExistBuyerName(string memory _buyerName){\n        bool _status = false;\n        uint len = allBuyerName.length;\n        for(uint i=0 ; i<len ; i++){\n            if(keccak256(abi.encodePacked(allBuyerName[i])) == keccak256(abi.encodePacked(_buyerName))){\n                _status = true;\n            }\n        }\n        require(_status == false, \"This Reader name is already registered...Please choose other name :0\");\n        _;\n    }\n\n\n    function registerAuthor(string memory _authorName) checkExistAuthorName(_authorName) public {\n       Author author = new Author(_authorName); \n       authorsLookup[msg.sender] = author;\n       findAuthorAddress[_authorName] = msg.sender;\n       findAuthorName[msg.sender] = _authorName;\n       author.setAuthorAddress(msg.sender);\n       allAuthorAddress.push(msg.sender);\n       allAuthorName.push(_authorName);\n    }\n    \n    function registerBuyer(string memory _buyerName) checkExistBuyerName(_buyerName) public {\n        Buyer buyer = new Buyer(_buyerName);\n        buyersLookup[msg.sender] = buyer;\n        findBuyerAddress[_buyerName] = msg.sender;\n        findBuyerName[msg.sender] = _buyerName;\n        allBuyerAddress.push(msg.sender);\n        allBuyerName.push(_buyerName);\n    }\n    \n    function checkExistenceOfAuthor() public view returns(bool _status){\n        _status = false;\n        uint len = allAuthorAddress.length;\n        for(uint i=0 ; i<len ; i++){\n            if(allAuthorAddress[i]==msg.sender){\n                _status = true;\n            }\n        }\n    }\n    \n    function checkExistenceOfBuyer() public view returns(bool _status){\n        _status = false;\n        uint len = allBuyerAddress.length;\n        for(uint i=0 ; i<len ; i++){\n            if(allBuyerAddress[i]==msg.sender){\n                _status = true;\n            }\n        }\n    }\n    \n    function registerBook(string memory _bookName,uint _rate,string memory _hash)  public{\n        authorsLookup[msg.sender].registerBook(_bookName,_rate,_hash);        \n    }\n    \n    function getAllAuthorBooks() public view returns(uint _totalBooks){\n        _totalBooks = authorsLookup[msg.sender].getAllAuthorBooks();\n    }\n\n    function getAllAuthorBooksByName(string memory _authorName) public view returns(uint _totalBooks){\n        _totalBooks = authorsLookup[findAuthorAddress[_authorName]].getAllAuthorBooks();\n    }\n\n\n    function getAuthorBookById(string memory _authorName, uint id) public view returns(string memory _bookName,uint _rate,uint _soldCount,string memory _hash){\n        (_bookName,_rate,_soldCount,_hash) = authorsLookup[findAuthorAddress[_authorName]].getAuthorBookById(id);\n    }\n    \n    function buyBookById1(string memory _authorName) public payable{\n        address(uint160(findAuthorAddress[_authorName])).transfer(msg.value);\n    }\n\n    function buyBookById2(string memory _authorName,uint _id,string memory _bookName,string memory _hash) public{\n        authorsLookup[findAuthorAddress[_authorName]].buyBookById(_id);\n        buyersLookup[msg.sender].buyBook(_authorName,_bookName,_hash);\n    }\n    \n    function getAllBuyerBook() public view returns(uint _totalBooks){\n        _totalBooks = buyersLookup[msg.sender].getAllBuyerBook();\n    }\n\n    function getAllBuyerBookByName(string memory _buyerName) public view returns(uint _totalBooks){\n        _totalBooks = buyersLookup[findBuyerAddress[_buyerName]].getAllBuyerBook();\n    }\n\n\n    function getBuyerBookById(uint _id) public view returns(string memory _authorName,string memory _bookName,string memory _hash){\n        (_authorName,_bookName,_hash) = buyersLookup[msg.sender].getBuyerBookById(_id); \n    }\n    \n    function getBuyerName() public view returns(string memory _buyerName){\n        _buyerName = buyersLookup[msg.sender].getBuyerName();\n    }\n    \n    function getAuthorName() public view returns(string memory _authorName){\n        _authorName = authorsLookup[msg.sender].getAuthorName();\n    }\n\n    function getAuthorNameById(uint _id) public view returns(string memory _authorName){\n        _authorName = allAuthorName[_id];\n    }\n\n    function getReaderNameById(uint _id) public view returns(string memory _buyerName){\n        _buyerName = allBuyerName[_id];\n    }\n\n    function totalAuthor() public view returns(uint _totalAuthor){\n        _totalAuthor = allAuthorAddress.length;\n    }\n\n    function totalReader() public view returns(uint _totalBuyer){\n        _totalBuyer = allBuyerAddress.length;\n    }\n\n}\n\ncontract Buyer{\n    struct Book{\n        string authorName;\n        string bookName;\n        string bookHash;\n    }\n    \n    Book[] public books;\n    \n    string public buyerName;\n    \n    constructor(string memory _buyerName) public{\n        buyerName = _buyerName;\n    }\n    \n    function getBuyerName() public view returns(string memory _buyerName){\n        _buyerName = buyerName;\n    }\n    \n    function buyBook(string memory _authorName,string memory _bookName,string memory _hash) public{\n        books.push(Book(_authorName,_bookName,_hash));\n    }\n    \n    function getBuyerBookById(uint _id) public view returns(string memory _authorName,string memory _bookName,string memory _hash){\n        _authorName = books[_id].authorName;\n        _bookName = books[_id].bookName;\n        _hash = books[_id].bookHash;\n    }\n\n    function getAllBuyerBook() public view returns(uint _totalBooks){\n        _totalBooks = books.length;\n    }\n}\n\ncontract Author{\n    \n    struct Book{\n        string name;\n        uint rate;\n        uint soldCount;\n        string bookHash;\n    }\n    \n    Book[] public books;\n\n    string authorName;\n\n    address authorContractAddress;\n\n    address payable authorAddress;\n\n    constructor(string memory _authorName) public{\n        authorName = _authorName;\n        authorContractAddress = address(this);\n    }\n\n    function setAuthorAddress(address payable _address) public{\n        authorAddress = _address;\n    }\n\n    function getAuthorContractAddress() public view returns(address _address){\n        _address = authorContractAddress;\n    }\n    \n    function getAuthorName() public view returns(string memory _authorName){\n        _authorName = authorName;\n    }\n\n    function buyBookById(uint _id) public{\n        books[_id].soldCount++;\n    }\n    \n    function registerBook(string memory _bookName, uint _rate,string memory _hash) public{\n        books.push(Book(_bookName,_rate,0,_hash));\n    }\n    \n    function getAuthorBookById(uint _id) public view returns(string memory _bookName,uint _rate,uint _soldCount,string memory _hash){\n        _bookName = books[_id].name;\n        _rate = books[_id].rate;\n        _soldCount = books[_id].soldCount;\n        _hash = books[_id].bookHash;\n    }\n    \n    function getAllAuthorBooks() public view returns(uint _totalBooks){\n        _totalBooks = books.length;\n    }\n}\n\n",
  "sourcePath": "/home/snakode/ipfs/contracts/Publisher.sol",
  "compiler": {
    "name": "solc",
    "version": "0.5.16+commit.9c3226ce.Emscripten.clang"
  },
  "schemaVersion": "3.1.0",
  "updatedAt": "2020-04-28T17:14:37.324Z",
  "devdoc": {
    "methods": {}
  },
  "userdoc": {
    "methods": {}
  }
}