{
  "contractName": "Publisher",
  "abi": [
    {
      "constant": true,
      "inputs": [
        {
          "internalType": "uint256",
          "name": "",
          "type": "uint256"
        }
      ],
      "name": "allAuthorAddress",
      "outputs": [
        {
          "internalType": "address",
          "name": "",
          "type": "address"
        }
      ],
      "payable": false,
      "stateMutability": "view",
      "type": "function"
    },
    {
      "constant": true,
      "inputs": [
        {
          "internalType": "uint256",
          "name": "",
          "type": "uint256"
        }
      ],
      "name": "allAuthorName",
      "outputs": [
        {
          "internalType": "string",
          "name": "",
          "type": "string"
        }
      ],
      "payable": false,
      "stateMutability": "view",
      "type": "function"
    },
    {
      "constant": true,
      "inputs": [
        {
          "internalType": "uint256",
          "name": "",
          "type": "uint256"
        }
      ],
      "name": "allBuyerAddress",
      "outputs": [
        {
          "internalType": "address",
          "name": "",
          "type": "address"
        }
      ],
      "payable": false,
      "stateMutability": "view",
      "type": "function"
    },
    {
      "constant": true,
      "inputs": [
        {
          "internalType": "uint256",
          "name": "",
          "type": "uint256"
        }
      ],
      "name": "allBuyerName",
      "outputs": [
        {
          "internalType": "string",
          "name": "",
          "type": "string"
        }
      ],
      "payable": false,
      "stateMutability": "view",
      "type": "function"
    },
    {
      "constant": false,
      "inputs": [
        {
          "internalType": "string",
          "name": "_authorName",
          "type": "string"
        }
      ],
      "name": "registerAuthor",
      "outputs": [],
      "payable": false,
      "stateMutability": "nonpayable",
      "type": "function"
    },
    {
      "constant": false,
      "inputs": [
        {
          "internalType": "string",
          "name": "_buyerName",
          "type": "string"
        }
      ],
      "name": "registerBuyer",
      "outputs": [],
      "payable": false,
      "stateMutability": "nonpayable",
      "type": "function"
    },
    {
      "constant": true,
      "inputs": [],
      "name": "checkExistenceOfAuthor",
      "outputs": [
        {
          "internalType": "bool",
          "name": "_status",
          "type": "bool"
        }
      ],
      "payable": false,
      "stateMutability": "view",
      "type": "function"
    },
    {
      "constant": true,
      "inputs": [],
      "name": "checkExistenceOfBuyer",
      "outputs": [
        {
          "internalType": "bool",
          "name": "_status",
          "type": "bool"
        }
      ],
      "payable": false,
      "stateMutability": "view",
      "type": "function"
    },
    {
      "constant": false,
      "inputs": [
        {
          "internalType": "string",
          "name": "_bookName",
          "type": "string"
        },
        {
          "internalType": "uint256",
          "name": "_rate",
          "type": "uint256"
        },
        {
          "internalType": "string",
          "name": "_hash",
          "type": "string"
        }
      ],
      "name": "registerBook",
      "outputs": [],
      "payable": false,
      "stateMutability": "nonpayable",
      "type": "function"
    },
    {
      "constant": true,
      "inputs": [],
      "name": "getAllAuthorBooks",
      "outputs": [
        {
          "internalType": "uint256",
          "name": "_totalBooks",
          "type": "uint256"
        }
      ],
      "payable": false,
      "stateMutability": "view",
      "type": "function"
    },
    {
      "constant": true,
      "inputs": [
        {
          "internalType": "string",
          "name": "_authorName",
          "type": "string"
        }
      ],
      "name": "getAllAuthorBooksByName",
      "outputs": [
        {
          "internalType": "uint256",
          "name": "_totalBooks",
          "type": "uint256"
        }
      ],
      "payable": false,
      "stateMutability": "view",
      "type": "function"
    },
    {
      "constant": true,
      "inputs": [
        {
          "internalType": "string",
          "name": "_authorName",
          "type": "string"
        },
        {
          "internalType": "uint256",
          "name": "id",
          "type": "uint256"
        }
      ],
      "name": "getAuthorBookById",
      "outputs": [
        {
          "internalType": "string",
          "name": "_bookName",
          "type": "string"
        },
        {
          "internalType": "uint256",
          "name": "_rate",
          "type": "uint256"
        },
        {
          "internalType": "uint256",
          "name": "_soldCount",
          "type": "uint256"
        },
        {
          "internalType": "string",
          "name": "_hash",
          "type": "string"
        }
      ],
      "payable": false,
      "stateMutability": "view",
      "type": "function"
    },
    {
      "constant": false,
      "inputs": [
        {
          "internalType": "string",
          "name": "_authorName",
          "type": "string"
        }
      ],
      "name": "buyBookById1",
      "outputs": [],
      "payable": true,
      "stateMutability": "payable",
      "type": "function"
    },
    {
      "constant": false,
      "inputs": [
        {
          "internalType": "string",
          "name": "_authorName",
          "type": "string"
        },
        {
          "internalType": "uint256",
          "name": "_id",
          "type": "uint256"
        },
        {
          "internalType": "string",
          "name": "_bookName",
          "type": "string"
        },
        {
          "internalType": "string",
          "name": "_hash",
          "type": "string"
        }
      ],
      "name": "buyBookById2",
      "outputs": [],
      "payable": false,
      "stateMutability": "nonpayable",
      "type": "function"
    },
    {
      "constant": true,
      "inputs": [],
      "name": "getAllBuyerBook",
      "outputs": [
        {
          "internalType": "uint256",
          "name": "_totalBooks",
          "type": "uint256"
        }
      ],
      "payable": false,
      "stateMutability": "view",
      "type": "function"
    },
    {
      "constant": true,
      "inputs": [
        {
          "internalType": "string",
          "name": "_buyerName",
          "type": "string"
        }
      ],
      "name": "getAllBuyerBookByName",
      "outputs": [
        {
          "internalType": "uint256",
          "name": "_totalBooks",
          "type": "uint256"
        }
      ],
      "payable": false,
      "stateMutability": "view",
      "type": "function"
    },
    {
      "constant": true,
      "inputs": [
        {
          "internalType": "uint256",
          "name": "_id",
          "type": "uint256"
        }
      ],
      "name": "getBuyerBookById",
      "outputs": [
        {
          "internalType": "string",
          "name": "_authorName",
          "type": "string"
        },
        {
          "internalType": "string",
          "name": "_bookName",
          "type": "string"
        },
        {
          "internalType": "string",
          "name": "_hash",
          "type": "string"
        }
      ],
      "payable": false,
      "stateMutability": "view",
      "type": "function"
    },
    {
      "constant": true,
      "inputs": [],
      "name": "getBuyerName",
      "outputs": [
        {
          "internalType": "string",
          "name": "_buyerName",
          "type": "string"
        }
      ],
      "payable": false,
      "stateMutability": "view",
      "type": "function"
    },
    {
      "constant": true,
      "inputs": [],
      "name": "getAuthorName",
      "outputs": [
        {
          "internalType": "string",
          "name": "_authorName",
          "type": "string"
        }
      ],
      "payable": false,
      "stateMutability": "view",
      "type": "function"
    },
    {
      "constant": true,
      "inputs": [
        {
          "internalType": "uint256",
          "name": "_id",
          "type": "uint256"
        }
      ],
      "name": "getAuthorNameById",
      "outputs": [
        {
          "internalType": "string",
          "name": "_authorName",
          "type": "string"
        }
      ],
      "payable": false,
      "stateMutability": "view",
      "type": "function"
    },
    {
      "constant": true,
      "inputs": [
        {
          "internalType": "uint256",
          "name": "_id",
          "type": "uint256"
        }
      ],
      "name": "getReaderNameById",
      "outputs": [
        {
          "internalType": "string",
          "name": "_buyerName",
          "type": "string"
        }
      ],
      "payable": false,
      "stateMutability": "view",
      "type": "function"
    },
    {
      "constant": true,
      "inputs": [],
      "name": "totalAuthor",
      "outputs": [
        {
          "internalType": "uint256",
          "name": "_totalAuthor",
          "type": "uint256"
        }
      ],
      "payable": false,
      "stateMutability": "view",
      "type": "function"
    },
    {
      "constant": true,
      "inputs": [],
      "name": "totalReader",
      "outputs": [
        {
          "internalType": "uint256",
          "name": "_totalBuyer",
          "type": "uint256"
        }
      ],
      "payable": false,
      "stateMutability": "view",
      "type": "function"
    }
  ],
  "bytecode": "0x608060405234801561001057600080fd5b506153cd806100206000396000f3fe6080604052600436106200015e5760003560e01c80637bc3e33711620000c7578063bbef355c1162000079578063bbef355c1462000ebd578063c2524e731462000eeb578063c8d9d98f14620010f8578063cb5e658e1462001126578063e2d4d7da1462001154578063ff6508df146200120f576200015e565b80637bc3e33714620009db57806387f225b61462000bad5780639370dd2a1462000bdf57806395f13b541462000cc2578063aaf829191462000d7d578063b3a15bae1462000e3e576200015e565b80632f0835ba11620001215780632f0835ba146200061257806339212f3814620006cd578063521dc2a4146200086657806367f29d67146200089857806372f2f1b5146200092e5780637b34d03214620009ad576200015e565b80630c6a27bc1462000163578063181ae3aa14620002325780631c09ea9614620003015780632a1f9e8114620004745780632b423be3146200052f575b600080fd5b3480156200017057600080fd5b5062000230600480360360208110156200018957600080fd5b8101908080359060200190640100000000811115620001a757600080fd5b820183602082011115620001ba57600080fd5b80359060200191846001830284011164010000000083111715620001dd57600080fd5b91908080601f016020809104026020016040519081016040528093929190818152602001838380828437600081840152601f19601f820116905080830192505050505050509192919290505050620012a5565b005b3480156200023f57600080fd5b50620002ff600480360360208110156200025857600080fd5b81019080803590602001906401000000008111156200027657600080fd5b8201836020820111156200028957600080fd5b80359060200191846001830284011164010000000083111715620002ac57600080fd5b91908080601f016020809104026020016040519081016040528093929190818152602001838380828437600081840152601f19601f82011690508083019250505050505050919291929050505062001716565b005b3480156200030e57600080fd5b5062000472600480360360608110156200032757600080fd5b81019080803590602001906401000000008111156200034557600080fd5b8201836020820111156200035857600080fd5b803590602001918460018302840111640100000000831117156200037b57600080fd5b91908080601f016020809104026020016040519081016040528093929190818152602001838380828437600081840152601f19601f8201169050808301925050505050505091929192908035906020019092919080359060200190640100000000811115620003e957600080fd5b820183602082011115620003fc57600080fd5b803590602001918460018302840111640100000000831117156200041f57600080fd5b91908080601f016020809104026020016040519081016040528093929190818152602001838380828437600081840152601f19601f82011690508083019250505050505050919291929050505062001c1f565b005b3480156200048157600080fd5b50620004b1600480360360208110156200049a57600080fd5b810190808035906020019092919050505062001dcf565b6040518080602001828103825283818151815260200191508051906020019080838360005b83811015620004f3578082015181840152602081019050620004d6565b50505050905090810190601f168015620005215780820380516001836020036101000a031916815260200191505b509250505060405180910390f35b3480156200053c57600080fd5b50620005fc600480360360208110156200055557600080fd5b81019080803590602001906401000000008111156200057357600080fd5b8201836020820111156200058657600080fd5b80359060200191846001830284011164010000000083111715620005a957600080fd5b91908080601f016020809104026020016040519081016040528093929190818152602001838380828437600081840152601f19601f82011690508083019250505050505050919291929050505062001e8d565b6040518082815260200191505060405180910390f35b3480156200061f57600080fd5b506200064f600480360360208110156200063857600080fd5b810190808035906020019092919050505062002004565b6040518080602001828103825283818151815260200191508051906020019080838360005b838110156200069157808201518184015260208101905062000674565b50505050905090810190601f168015620006bf5780820380516001836020036101000a031916815260200191505b509250505060405180910390f35b348015620006da57600080fd5b506200070a60048036036020811015620006f357600080fd5b8101908080359060200190929190505050620020c2565b60405180806020018060200180602001848103845287818151815260200191508051906020019080838360005b838110156200075457808201518184015260208101905062000737565b50505050905090810190601f168015620007825780820380516001836020036101000a031916815260200191505b50848103835286818151815260200191508051906020019080838360005b83811015620007bd578082015181840152602081019050620007a0565b50505050905090810190601f168015620007eb5780820380516001836020036101000a031916815260200191505b50848103825285818151815260200191508051906020019080838360005b838110156200082657808201518184015260208101905062000809565b50505050905090810190601f168015620008545780820380516001836020036101000a031916815260200191505b50965050505050505060405180910390f35b3480156200087357600080fd5b506200087e62002406565b604051808215151515815260200191505060405180910390f35b348015620008a557600080fd5b50620008b0620024a9565b6040518080602001828103825283818151815260200191508051906020019080838360005b83811015620008f2578082015181840152602081019050620008d5565b50505050905090810190601f168015620009205780820380516001836020036101000a031916815260200191505b509250505060405180910390f35b3480156200093b57600080fd5b506200096b600480360360208110156200095457600080fd5b810190808035906020019092919050505062002656565b604051808273ffffffffffffffffffffffffffffffffffffffff1673ffffffffffffffffffffffffffffffffffffffff16815260200191505060405180910390f35b348015620009ba57600080fd5b50620009c562002693565b6040518082815260200191505060405180910390f35b348015620009e857600080fd5b5062000ab26004803603604081101562000a0157600080fd5b810190808035906020019064010000000081111562000a1f57600080fd5b82018360208201111562000a3257600080fd5b8035906020019184600183028401116401000000008311171562000a5557600080fd5b91908080601f016020809104026020016040519081016040528093929190818152602001838380828437600081840152601f19601f820116905080830192505050505050509192919290803590602001909291905050506200277c565b604051808060200185815260200184815260200180602001838103835287818151815260200191508051906020019080838360005b8381101562000b0457808201518184015260208101905062000ae7565b50505050905090810190601f16801562000b325780820380516001836020036101000a031916815260200191505b50838103825284818151815260200191508051906020019080838360005b8381101562000b6d57808201518184015260208101905062000b50565b50505050905090810190601f16801562000b9b5780820380516001836020036101000a031916815260200191505b50965050505050505060405180910390f35b34801562000bba57600080fd5b5062000bc562002aa9565b604051808215151515815260200191505060405180910390f35b34801562000bec57600080fd5b5062000cac6004803603602081101562000c0557600080fd5b810190808035906020019064010000000081111562000c2357600080fd5b82018360208201111562000c3657600080fd5b8035906020019184600183028401116401000000008311171562000c5957600080fd5b91908080601f016020809104026020016040519081016040528093929190818152602001838380828437600081840152601f19601f82011690508083019250505050505050919291929050505062002b4c565b6040518082815260200191505060405180910390f35b34801562000ccf57600080fd5b5062000cff6004803603602081101562000ce857600080fd5b810190808035906020019092919050505062002cc2565b6040518080602001828103825283818151815260200191508051906020019080838360005b8381101562000d4157808201518184015260208101905062000d24565b50505050905090810190601f16801562000d6f5780820380516001836020036101000a031916815260200191505b509250505060405180910390f35b62000e3c6004803603602081101562000d9557600080fd5b810190808035906020019064010000000081111562000db357600080fd5b82018360208201111562000dc657600080fd5b8035906020019184600183028401116401000000008311171562000de957600080fd5b91908080601f016020809104026020016040519081016040528093929190818152602001838380828437600081840152601f19601f82011690508083019250505050505050919291929050505062002d80565b005b34801562000e4b57600080fd5b5062000e7b6004803603602081101562000e6457600080fd5b810190808035906020019092919050505062002e56565b604051808273ffffffffffffffffffffffffffffffffffffffff1673ffffffffffffffffffffffffffffffffffffffff16815260200191505060405180910390f35b34801562000eca57600080fd5b5062000ed562002e93565b6040518082815260200191505060405180910390f35b34801562000ef857600080fd5b50620010f66004803603608081101562000f1157600080fd5b810190808035906020019064010000000081111562000f2f57600080fd5b82018360208201111562000f4257600080fd5b8035906020019184600183028401116401000000008311171562000f6557600080fd5b91908080601f016020809104026020016040519081016040528093929190818152602001838380828437600081840152601f19601f820116905080830192505050505050509192919290803590602001909291908035906020019064010000000081111562000fd357600080fd5b82018360208201111562000fe657600080fd5b803590602001918460018302840111640100000000831117156200100957600080fd5b91908080601f016020809104026020016040519081016040528093929190818152602001838380828437600081840152601f19601f820116905080830192505050505050509192919290803590602001906401000000008111156200106d57600080fd5b8201836020820111156200108057600080fd5b80359060200191846001830284011164010000000083111715620010a357600080fd5b91908080601f016020809104026020016040519081016040528093929190818152602001838380828437600081840152601f19601f82011690508083019250505050505050919291929050505062002ea0565b005b3480156200110557600080fd5b506200111062003210565b6040518082815260200191505060405180910390f35b3480156200113357600080fd5b506200113e620032fa565b6040518082815260200191505060405180910390f35b3480156200116157600080fd5b5062001191600480360360208110156200117a57600080fd5b810190808035906020019092919050505062003307565b6040518080602001828103825283818151815260200191508051906020019080838360005b83811015620011d3578082015181840152602081019050620011b6565b50505050905090810190601f168015620012015780820380516001836020036101000a031916815260200191505b509250505060405180910390f35b3480156200121c57600080fd5b5062001227620033c5565b6040518080602001828103825283818151815260200191508051906020019080838360005b83811015620012695780820151818401526020810190506200124c565b50505050905090810190601f168015620012975780820380516001836020036101000a031916815260200191505b509250505060405180910390f35b8060008090506000600880549050905060008090505b81811015620013e757836040516020018082805190602001908083835b60208310620012fd5780518252602082019150602081019050602083039250620012d8565b6001836020036101000a03801982511681845116808217855250505050505090500191505060405160208183030381529060405280519060200120600882815481106200134657fe5b906000526020600020016040516020018082805460018160011615610100020316600290048015620013b25780601f106200138f576101008083540402835291820191620013b2565b820191906000526020600020905b8154815290600101906020018083116200139d575b5050915050604051602081830303815290604052805190602001201415620013d957600192505b8080600101915050620012bb565b50600015158215151462001447576040517f08c379a0000000000000000000000000000000000000000000000000000000008152600401808060200182810382526044815260200180620053556044913960600191505060405180910390fd5b600084604051620014589062003573565b8080602001828103825283818151815260200191508051906020019080838360005b83811015620014975780820151818401526020810190506200147a565b50505050905090810190601f168015620014c55780820380516001836020036101000a031916815260200191505b5092505050604051809103906000f080158015620014e7573d6000803e3d6000fd5b50905080600560003373ffffffffffffffffffffffffffffffffffffffff1673ffffffffffffffffffffffffffffffffffffffff16815260200190815260200160002060006101000a81548173ffffffffffffffffffffffffffffffffffffffff021916908373ffffffffffffffffffffffffffffffffffffffff160217905550336006866040518082805190602001908083835b60208310620015a157805182526020820191506020810190506020830392506200157c565b6001836020036101000a038019825116818451168082178552505050505050905001915050908152602001604051809103902060006101000a81548173ffffffffffffffffffffffffffffffffffffffff021916908373ffffffffffffffffffffffffffffffffffffffff16021790555084600760003373ffffffffffffffffffffffffffffffffffffffff1673ffffffffffffffffffffffffffffffffffffffff16815260200190815260200160002090805190602001906200166792919062003581565b5060093390806001815401808255809150509060018203906000526020600020016000909192909190916101000a81548173ffffffffffffffffffffffffffffffffffffffff021916908373ffffffffffffffffffffffffffffffffffffffff1602179055505060088590806001815401808255809150509060018203906000526020600020016000909192909190915090805190602001906200170d92919062003581565b50505050505050565b8060008090506000600380549050905060008090505b818110156200185857836040516020018082805190602001908083835b602083106200176e578051825260208201915060208101905060208303925062001749565b6001836020036101000a0380198251168184511680821785525050505050509050019150506040516020818303038152906040528051906020012060038281548110620017b757fe5b906000526020600020016040516020018082805460018160011615610100020316600290048015620018235780601f106200180057610100808354040283529182019162001823565b820191906000526020600020905b8154815290600101906020018083116200180e575b50509150506040516020818303038152906040528051906020012014156200184a57600192505b80806001019150506200172c565b506000151582151514620018b8576040517f08c379a0000000000000000000000000000000000000000000000000000000008152600401808060200182810382526044815260200180620053116044913960600191505060405180910390fd5b600084604051620018c99062003608565b8080602001828103825283818151815260200191508051906020019080838360005b8381101562001908578082015181840152602081019050620018eb565b50505050905090810190601f168015620019365780820380516001836020036101000a031916815260200191505b5092505050604051809103906000f08015801562001958573d6000803e3d6000fd5b509050806000803373ffffffffffffffffffffffffffffffffffffffff1673ffffffffffffffffffffffffffffffffffffffff16815260200190815260200160002060006101000a81548173ffffffffffffffffffffffffffffffffffffffff021916908373ffffffffffffffffffffffffffffffffffffffff160217905550336001866040518082805190602001908083835b6020831062001a115780518252602082019150602081019050602083039250620019ec565b6001836020036101000a038019825116818451168082178552505050505050905001915050908152602001604051809103902060006101000a81548173ffffffffffffffffffffffffffffffffffffffff021916908373ffffffffffffffffffffffffffffffffffffffff16021790555084600260003373ffffffffffffffffffffffffffffffffffffffff1673ffffffffffffffffffffffffffffffffffffffff168152602001908152602001600020908051906020019062001ad792919062003581565b508073ffffffffffffffffffffffffffffffffffffffff1663d099b35f336040518263ffffffff1660e01b8152600401808273ffffffffffffffffffffffffffffffffffffffff1673ffffffffffffffffffffffffffffffffffffffff168152602001915050600060405180830381600087803b15801562001b5857600080fd5b505af115801562001b6d573d6000803e3d6000fd5b5050505060043390806001815401808255809150509060018203906000526020600020016000909192909190916101000a81548173ffffffffffffffffffffffffffffffffffffffff021916908373ffffffffffffffffffffffffffffffffffffffff16021790555050600385908060018154018082558091505090600182039060005260206000200160009091929091909150908051906020019062001c1692919062003581565b50505050505050565b6000803373ffffffffffffffffffffffffffffffffffffffff1673ffffffffffffffffffffffffffffffffffffffff16815260200190815260200160002060009054906101000a900473ffffffffffffffffffffffffffffffffffffffff1673ffffffffffffffffffffffffffffffffffffffff16631c09ea968484846040518463ffffffff1660e01b8152600401808060200184815260200180602001838103835286818151815260200191508051906020019080838360005b8381101562001cf757808201518184015260208101905062001cda565b50505050905090810190601f16801562001d255780820380516001836020036101000a031916815260200191505b50838103825284818151815260200191508051906020019080838360005b8381101562001d6057808201518184015260208101905062001d43565b50505050905090810190601f16801562001d8e5780820380516001836020036101000a031916815260200191505b5095505050505050600060405180830381600087803b15801562001db157600080fd5b505af115801562001dc6573d6000803e3d6000fd5b50505050505050565b60606008828154811062001ddf57fe5b906000526020600020018054600181600116156101000203166002900480601f01602080910402602001604051908101604052809291908181526020018280546001816001161561010002031660029004801562001e815780601f1062001e555761010080835404028352916020019162001e81565b820191906000526020600020905b81548152906001019060200180831162001e6357829003601f168201915b50505050509050919050565b6000600560006006846040518082805190602001908083835b6020831062001ecb578051825260208201915060208101905060208303925062001ea6565b6001836020036101000a038019825116818451168082178552505050505050905001915050908152602001604051809103902060009054906101000a900473ffffffffffffffffffffffffffffffffffffffff1673ffffffffffffffffffffffffffffffffffffffff1673ffffffffffffffffffffffffffffffffffffffff16815260200190815260200160002060009054906101000a900473ffffffffffffffffffffffffffffffffffffffff1673ffffffffffffffffffffffffffffffffffffffff1663c8d9d98f6040518163ffffffff1660e01b815260040160206040518083038186803b15801562001fc057600080fd5b505afa15801562001fd5573d6000803e3d6000fd5b505050506040513d602081101562001fec57600080fd5b81019080805190602001909291905050509050919050565b600381815481106200201257fe5b906000526020600020016000915090508054600181600116156101000203166002900480601f016020809104026020016040519081016040528092919081815260200182805460018160011615610100020316600290048015620020ba5780601f106200208e57610100808354040283529160200191620020ba565b820191906000526020600020905b8154815290600101906020018083116200209c57829003601f168201915b505050505081565b6060806060600560003373ffffffffffffffffffffffffffffffffffffffff1673ffffffffffffffffffffffffffffffffffffffff16815260200190815260200160002060009054906101000a900473ffffffffffffffffffffffffffffffffffffffff1673ffffffffffffffffffffffffffffffffffffffff166339212f38856040518263ffffffff1660e01b81526004018082815260200191505060006040518083038186803b1580156200217857600080fd5b505afa1580156200218d573d6000803e3d6000fd5b505050506040513d6000823e3d601f19601f820116820180604052506060811015620021b857600080fd5b8101908080516040519392919084640100000000821115620021d957600080fd5b83820191506020820185811115620021f057600080fd5b82518660018202830111640100000000821117156200220e57600080fd5b8083526020830192505050908051906020019080838360005b838110156200224457808201518184015260208101905062002227565b50505050905090810190601f168015620022725780820380516001836020036101000a031916815260200191505b50604052602001805160405193929190846401000000008211156200229657600080fd5b83820191506020820185811115620022ad57600080fd5b8251866001820283011164010000000082111715620022cb57600080fd5b8083526020830192505050908051906020019080838360005b8381101562002301578082015181840152602081019050620022e4565b50505050905090810190601f1680156200232f5780820380516001836020036101000a031916815260200191505b50604052602001805160405193929190846401000000008211156200235357600080fd5b838201915060208201858111156200236a57600080fd5b82518660018202830111640100000000821117156200238857600080fd5b8083526020830192505050908051906020019080838360005b83811015620023be578082015181840152602081019050620023a1565b50505050905090810190601f168015620023ec5780820380516001836020036101000a031916815260200191505b506040525050508093508194508295505050509193909250565b60008090506000600980549050905060008090505b81811015620024a4573373ffffffffffffffffffffffffffffffffffffffff16600982815481106200244957fe5b9060005260206000200160009054906101000a900473ffffffffffffffffffffffffffffffffffffffff1673ffffffffffffffffffffffffffffffffffffffff1614156200249657600192505b80806001019150506200241b565b505090565b60606000803373ffffffffffffffffffffffffffffffffffffffff1673ffffffffffffffffffffffffffffffffffffffff16815260200190815260200160002060009054906101000a900473ffffffffffffffffffffffffffffffffffffffff1673ffffffffffffffffffffffffffffffffffffffff166367f29d676040518163ffffffff1660e01b815260040160006040518083038186803b1580156200255057600080fd5b505afa15801562002565573d6000803e3d6000fd5b505050506040513d6000823e3d601f19601f8201168201806040525060208110156200259057600080fd5b8101908080516040519392919084640100000000821115620025b157600080fd5b83820191506020820185811115620025c857600080fd5b8251866001820283011164010000000082111715620025e657600080fd5b8083526020830192505050908051906020019080838360005b838110156200261c578082015181840152602081019050620025ff565b50505050905090810190601f1680156200264a5780820380516001836020036101000a031916815260200191505b50604052505050905090565b600481815481106200266457fe5b906000526020600020016000915054906101000a900473ffffffffffffffffffffffffffffffffffffffff1681565b60008060003373ffffffffffffffffffffffffffffffffffffffff1673ffffffffffffffffffffffffffffffffffffffff16815260200190815260200160002060009054906101000a900473ffffffffffffffffffffffffffffffffffffffff1673ffffffffffffffffffffffffffffffffffffffff16637b34d0326040518163ffffffff1660e01b815260040160206040518083038186803b1580156200273a57600080fd5b505afa1580156200274f573d6000803e3d6000fd5b505050506040513d60208110156200276657600080fd5b8101908080519060200190929190505050905090565b606060008060606000806001886040518082805190602001908083835b60208310620027be578051825260208201915060208101905060208303925062002799565b6001836020036101000a038019825116818451168082178552505050505050905001915050908152602001604051809103902060009054906101000a900473ffffffffffffffffffffffffffffffffffffffff1673ffffffffffffffffffffffffffffffffffffffff1673ffffffffffffffffffffffffffffffffffffffff16815260200190815260200160002060009054906101000a900473ffffffffffffffffffffffffffffffffffffffff1673ffffffffffffffffffffffffffffffffffffffff166393af9733866040518263ffffffff1660e01b81526004018082815260200191505060006040518083038186803b158015620028be57600080fd5b505afa158015620028d3573d6000803e3d6000fd5b505050506040513d6000823e3d601f19601f820116820180604052506080811015620028fe57600080fd5b81019080805160405193929190846401000000008211156200291f57600080fd5b838201915060208201858111156200293657600080fd5b82518660018202830111640100000000821117156200295457600080fd5b8083526020830192505050908051906020019080838360005b838110156200298a5780820151818401526020810190506200296d565b50505050905090810190601f168015620029b85780820380516001836020036101000a031916815260200191505b50604052602001805190602001909291908051906020019092919080516040519392919084640100000000821115620029f057600080fd5b8382019150602082018581111562002a0757600080fd5b825186600182028301116401000000008211171562002a2557600080fd5b8083526020830192505050908051906020019080838360005b8381101562002a5b57808201518184015260208101905062002a3e565b50505050905090810190601f16801562002a895780820380516001836020036101000a031916815260200191505b506040525050508094508195508296508397505050505092959194509250565b60008090506000600480549050905060008090505b8181101562002b47573373ffffffffffffffffffffffffffffffffffffffff166004828154811062002aec57fe5b9060005260206000200160009054906101000a900473ffffffffffffffffffffffffffffffffffffffff1673ffffffffffffffffffffffffffffffffffffffff16141562002b3957600192505b808060010191505062002abe565b505090565b60008060006001846040518082805190602001908083835b6020831062002b89578051825260208201915060208101905060208303925062002b64565b6001836020036101000a038019825116818451168082178552505050505050905001915050908152602001604051809103902060009054906101000a900473ffffffffffffffffffffffffffffffffffffffff1673ffffffffffffffffffffffffffffffffffffffff1673ffffffffffffffffffffffffffffffffffffffff16815260200190815260200160002060009054906101000a900473ffffffffffffffffffffffffffffffffffffffff1673ffffffffffffffffffffffffffffffffffffffff16637b34d0326040518163ffffffff1660e01b815260040160206040518083038186803b15801562002c7e57600080fd5b505afa15801562002c93573d6000803e3d6000fd5b505050506040513d602081101562002caa57600080fd5b81019080805190602001909291905050509050919050565b60606003828154811062002cd257fe5b906000526020600020018054600181600116156101000203166002900480601f01602080910402602001604051908101604052809291908181526020018280546001816001161561010002031660029004801562002d745780601f1062002d485761010080835404028352916020019162002d74565b820191906000526020600020905b81548152906001019060200180831162002d5657829003601f168201915b50505050509050919050565b6001816040518082805190602001908083835b6020831062002db8578051825260208201915060208101905060208303925062002d93565b6001836020036101000a038019825116818451168082178552505050505050905001915050908152602001604051809103902060009054906101000a900473ffffffffffffffffffffffffffffffffffffffff1673ffffffffffffffffffffffffffffffffffffffff166108fc349081150290604051600060405180830381858888f1935050505015801562002e52573d6000803e3d6000fd5b5050565b6009818154811062002e6457fe5b906000526020600020016000915054906101000a900473ffffffffffffffffffffffffffffffffffffffff1681565b6000600480549050905090565b6000806001866040518082805190602001908083835b6020831062002edb578051825260208201915060208101905060208303925062002eb6565b6001836020036101000a038019825116818451168082178552505050505050905001915050908152602001604051809103902060009054906101000a900473ffffffffffffffffffffffffffffffffffffffff1673ffffffffffffffffffffffffffffffffffffffff1673ffffffffffffffffffffffffffffffffffffffff16815260200190815260200160002060009054906101000a900473ffffffffffffffffffffffffffffffffffffffff1673ffffffffffffffffffffffffffffffffffffffff1663cf87b699846040518263ffffffff1660e01b815260040180828152602001915050600060405180830381600087803b15801562002fdd57600080fd5b505af115801562002ff2573d6000803e3d6000fd5b50505050600560003373ffffffffffffffffffffffffffffffffffffffff1673ffffffffffffffffffffffffffffffffffffffff16815260200190815260200160002060009054906101000a900473ffffffffffffffffffffffffffffffffffffffff1673ffffffffffffffffffffffffffffffffffffffff1663c2bfba7b8584846040518463ffffffff1660e01b815260040180806020018060200180602001848103845287818151815260200191508051906020019080838360005b83811015620030cd578082015181840152602081019050620030b0565b50505050905090810190601f168015620030fb5780820380516001836020036101000a031916815260200191505b50848103835286818151815260200191508051906020019080838360005b838110156200313657808201518184015260208101905062003119565b50505050905090810190601f168015620031645780820380516001836020036101000a031916815260200191505b50848103825285818151815260200191508051906020019080838360005b838110156200319f57808201518184015260208101905062003182565b50505050905090810190601f168015620031cd5780820380516001836020036101000a031916815260200191505b509650505050505050600060405180830381600087803b158015620031f157600080fd5b505af115801562003206573d6000803e3d6000fd5b5050505050505050565b6000600560003373ffffffffffffffffffffffffffffffffffffffff1673ffffffffffffffffffffffffffffffffffffffff16815260200190815260200160002060009054906101000a900473ffffffffffffffffffffffffffffffffffffffff1673ffffffffffffffffffffffffffffffffffffffff1663c8d9d98f6040518163ffffffff1660e01b815260040160206040518083038186803b158015620032b857600080fd5b505afa158015620032cd573d6000803e3d6000fd5b505050506040513d6020811015620032e457600080fd5b8101908080519060200190929190505050905090565b6000600980549050905090565b600881815481106200331557fe5b906000526020600020016000915090508054600181600116156101000203166002900480601f016020809104026020016040519081016040528092919081815260200182805460018160011615610100020316600290048015620033bd5780601f106200339157610100808354040283529160200191620033bd565b820191906000526020600020905b8154815290600101906020018083116200339f57829003601f168201915b505050505081565b6060600560003373ffffffffffffffffffffffffffffffffffffffff1673ffffffffffffffffffffffffffffffffffffffff16815260200190815260200160002060009054906101000a900473ffffffffffffffffffffffffffffffffffffffff1673ffffffffffffffffffffffffffffffffffffffff1663ff6508df6040518163ffffffff1660e01b815260040160006040518083038186803b1580156200346d57600080fd5b505afa15801562003482573d6000803e3d6000fd5b505050506040513d6000823e3d601f19601f820116820180604052506020811015620034ad57600080fd5b8101908080516040519392919084640100000000821115620034ce57600080fd5b83820191506020820185811115620034e557600080fd5b82518660018202830111640100000000821117156200350357600080fd5b8083526020830192505050908051906020019080838360005b83811015620035395780820151818401526020810190506200351c565b50505050905090810190601f168015620035675780820380516001836020036101000a031916815260200191505b50604052505050905090565b610f4c806200363f83390190565b828054600181600116156101000203166002900490600052602060002090601f016020900481019282601f10620035c457805160ff1916838001178555620035f5565b82800160010185558215620035f5579182015b82811115620035f4578251825591602001919060010190620035d7565b5b50905062003604919062003616565b5090565b610d86806200458b83390190565b6200363b91905b80821115620036375760008160009055506001016200361d565b5090565b9056fe60806040523480156200001157600080fd5b5060405162000f4c38038062000f4c833981810160405260208110156200003757600080fd5b81019080805160405193929190846401000000008211156200005857600080fd5b838201915060208201858111156200006f57600080fd5b82518660018202830111640100000000821117156200008d57600080fd5b8083526020830192505050908051906020019080838360005b83811015620000c3578082015181840152602081019050620000a6565b50505050905090810190601f168015620000f15780820380516001836020036101000a031916815260200191505b5060405250505080600190805190602001906200011092919062000118565b5050620001c7565b828054600181600116156101000203166002900490600052602060002090601f016020900481019282601f106200015b57805160ff19168380011785556200018c565b828001600101855582156200018c579182015b828111156200018b5782518255916020019190600101906200016e565b5b5090506200019b91906200019f565b5090565b620001c491905b80821115620001c0576000816000905550600101620001a6565b5090565b90565b610d7580620001d76000396000f3fe608060405234801561001057600080fd5b50600436106100625760003560e01c806339212f38146100675780634ed175ab146101e65780636874404614610269578063c2bfba7b146103e8578063c8d9d98f146105d1578063ff6508df146105ef575b600080fd5b6100936004803603602081101561007d57600080fd5b8101908080359060200190929190505050610672565b60405180806020018060200180602001848103845287818151815260200191508051906020019080838360005b838110156100db5780820151818401526020810190506100c0565b50505050905090810190601f1680156101085780820380516001836020036101000a031916815260200191505b50848103835286818151815260200191508051906020019080838360005b83811015610141578082015181840152602081019050610126565b50505050905090810190601f16801561016e5780820380516001836020036101000a031916815260200191505b50848103825285818151815260200191508051906020019080838360005b838110156101a757808201518184015260208101905061018c565b50505050905090810190601f1680156101d45780820380516001836020036101000a031916815260200191505b50965050505050505060405180910390f35b6101ee6108a9565b6040518080602001828103825283818151815260200191508051906020019080838360005b8381101561022e578082015181840152602081019050610213565b50505050905090810190601f16801561025b5780820380516001836020036101000a031916815260200191505b509250505060405180910390f35b6102956004803603602081101561027f57600080fd5b8101908080359060200190929190505050610947565b60405180806020018060200180602001848103845287818151815260200191508051906020019080838360005b838110156102dd5780820151818401526020810190506102c2565b50505050905090810190601f16801561030a5780820380516001836020036101000a031916815260200191505b50848103835286818151815260200191508051906020019080838360005b83811015610343578082015181840152602081019050610328565b50505050905090810190601f1680156103705780820380516001836020036101000a031916815260200191505b50848103825285818151815260200191508051906020019080838360005b838110156103a957808201518184015260208101905061038e565b50505050905090810190601f1680156103d65780820380516001836020036101000a031916815260200191505b50965050505050505060405180910390f35b6105cf600480360360608110156103fe57600080fd5b810190808035906020019064010000000081111561041b57600080fd5b82018360208201111561042d57600080fd5b8035906020019184600183028401116401000000008311171561044f57600080fd5b91908080601f016020809104026020016040519081016040528093929190818152602001838380828437600081840152601f19601f820116905080830192505050505050509192919290803590602001906401000000008111156104b257600080fd5b8201836020820111156104c457600080fd5b803590602001918460018302840111640100000000831117156104e657600080fd5b91908080601f016020809104026020016040519081016040528093929190818152602001838380828437600081840152601f19601f8201169050808301925050505050505091929192908035906020019064010000000081111561054957600080fd5b82018360208201111561055b57600080fd5b8035906020019184600183028401116401000000008311171561057d57600080fd5b91908080601f016020809104026020016040519081016040528093929190818152602001838380828437600081840152601f19601f820116905080830192505050505050509192919290505050610b46565b005b6105d9610bed565b6040518082815260200191505060405180910390f35b6105f7610bf9565b6040518080602001828103825283818151815260200191508051906020019080838360005b8381101561063757808201518184015260208101905061061c565b50505050905090810190601f1680156106645780820380516001836020036101000a031916815260200191505b509250505060405180910390f35b60608060606000848154811061068457fe5b90600052602060002090600302016000018054600181600116156101000203166002900480601f0160208091040260200160405190810160405280929190818152602001828054600181600116156101000203166002900480156107295780601f106106fe57610100808354040283529160200191610729565b820191906000526020600020905b81548152906001019060200180831161070c57829003601f168201915b505050505092506000848154811061073d57fe5b90600052602060002090600302016001018054600181600116156101000203166002900480601f0160208091040260200160405190810160405280929190818152602001828054600181600116156101000203166002900480156107e25780601f106107b7576101008083540402835291602001916107e2565b820191906000526020600020905b8154815290600101906020018083116107c557829003601f168201915b50505050509150600084815481106107f657fe5b90600052602060002090600302016002018054600181600116156101000203166002900480601f01602080910402602001604051908101604052809291908181526020018280546001816001161561010002031660029004801561089b5780601f106108705761010080835404028352916020019161089b565b820191906000526020600020905b81548152906001019060200180831161087e57829003601f168201915b505050505090509193909250565b60018054600181600116156101000203166002900480601f01602080910402602001604051908101604052809291908181526020018280546001816001161561010002031660029004801561093f5780601f106109145761010080835404028352916020019161093f565b820191906000526020600020905b81548152906001019060200180831161092257829003601f168201915b505050505081565b6000818154811061095457fe5b9060005260206000209060030201600091509050806000018054600181600116156101000203166002900480601f016020809104026020016040519081016040528092919081815260200182805460018160011615610100020316600290048015610a005780601f106109d557610100808354040283529160200191610a00565b820191906000526020600020905b8154815290600101906020018083116109e357829003601f168201915b505050505090806001018054600181600116156101000203166002900480601f016020809104026020016040519081016040528092919081815260200182805460018160011615610100020316600290048015610a9e5780601f10610a7357610100808354040283529160200191610a9e565b820191906000526020600020905b815481529060010190602001808311610a8157829003601f168201915b505050505090806002018054600181600116156101000203166002900480601f016020809104026020016040519081016040528092919081815260200182805460018160011615610100020316600290048015610b3c5780601f10610b1157610100808354040283529160200191610b3c565b820191906000526020600020905b815481529060010190602001808311610b1f57829003601f168201915b5050505050905083565b6000604051806060016040528085815260200184815260200183815250908060018154018082558091505090600182039060005260206000209060030201600090919290919091506000820151816000019080519060200190610baa929190610c9b565b506020820151816001019080519060200190610bc7929190610c9b565b506040820151816002019080519060200190610be4929190610c9b565b50505050505050565b60008080549050905090565b606060018054600181600116156101000203166002900480601f016020809104026020016040519081016040528092919081815260200182805460018160011615610100020316600290048015610c915780601f10610c6657610100808354040283529160200191610c91565b820191906000526020600020905b815481529060010190602001808311610c7457829003601f168201915b5050505050905090565b828054600181600116156101000203166002900490600052602060002090601f016020900481019282601f10610cdc57805160ff1916838001178555610d0a565b82800160010185558215610d0a579182015b82811115610d09578251825591602001919060010190610cee565b5b509050610d179190610d1b565b5090565b610d3d91905b80821115610d39576000816000905550600101610d21565b5090565b9056fea265627a7a723158209f8386312ebd7f350f00b78b62cce26842117cb3adbeb390bfd911b10126fddd64736f6c63430005100032608060405234801561001057600080fd5b5060405162000d8638038062000d868339818101604052602081101561003557600080fd5b810190808051604051939291908464010000000082111561005557600080fd5b8382019150602082018581111561006b57600080fd5b825186600182028301116401000000008211171561008857600080fd5b8083526020830192505050908051906020019080838360005b838110156100bc5780820151818401526020810190506100a1565b50505050905090810190601f1680156100e95780820380516001836020036101000a031916815260200191505b50604052505050806001908051906020019061010692919061014e565b5030600260006101000a81548173ffffffffffffffffffffffffffffffffffffffff021916908373ffffffffffffffffffffffffffffffffffffffff160217905550506101f3565b828054600181600116156101000203166002900490600052602060002090601f016020900481019282601f1061018f57805160ff19168380011785556101bd565b828001600101855582156101bd579182015b828111156101bc5782518255916020019190600101906101a1565b5b5090506101ca91906101ce565b5090565b6101f091905b808211156101ec5760008160009055506001016101d4565b5090565b90565b610b8380620002036000396000f3fe608060405234801561001057600080fd5b50600436106100885760003560e01c80637b34d0321161005b5780637b34d032146103d757806393af9733146103f5578063cf87b69914610516578063d099b35f1461054457610088565b80631c09ea961461008d57806367f29d67146101e9578063687440461461026c5780636a509bac1461038d575b600080fd5b6101e7600480360360608110156100a357600080fd5b81019080803590602001906401000000008111156100c057600080fd5b8201836020820111156100d257600080fd5b803590602001918460018302840111640100000000831117156100f457600080fd5b91908080601f016020809104026020016040519081016040528093929190818152602001838380828437600081840152601f19601f820116905080830192505050505050509192919290803590602001909291908035906020019064010000000081111561016157600080fd5b82018360208201111561017357600080fd5b8035906020019184600183028401116401000000008311171561019557600080fd5b91908080601f016020809104026020016040519081016040528093929190818152602001838380828437600081840152601f19601f820116905080830192505050505050509192919290505050610588565b005b6101f161062d565b6040518080602001828103825283818151815260200191508051906020019080838360005b83811015610231578082015181840152602081019050610216565b50505050905090810190601f16801561025e5780820380516001836020036101000a031916815260200191505b509250505060405180910390f35b6102986004803603602081101561028257600080fd5b81019080803590602001909291905050506106cf565b604051808060200185815260200184815260200180602001838103835287818151815260200191508051906020019080838360005b838110156102e85780820151818401526020810190506102cd565b50505050905090810190601f1680156103155780820380516001836020036101000a031916815260200191505b50838103825284818151815260200191508051906020019080838360005b8381101561034e578082015181840152602081019050610333565b50505050905090810190601f16801561037b5780820380516001836020036101000a031916815260200191505b50965050505050505060405180910390f35b61039561083c565b604051808273ffffffffffffffffffffffffffffffffffffffff1673ffffffffffffffffffffffffffffffffffffffff16815260200191505060405180910390f35b6103df610866565b6040518082815260200191505060405180910390f35b6104216004803603602081101561040b57600080fd5b8101908080359060200190929190505050610872565b604051808060200185815260200184815260200180602001838103835287818151815260200191508051906020019080838360005b83811015610471578082015181840152602081019050610456565b50505050905090810190601f16801561049e5780820380516001836020036101000a031916815260200191505b50838103825284818151815260200191508051906020019080838360005b838110156104d75780820151818401526020810190506104bc565b50505050905090810190601f1680156105045780820380516001836020036101000a031916815260200191505b50965050505050505060405180910390f35b6105426004803603602081101561052c57600080fd5b8101908080359060200190929190505050610a34565b005b6105866004803603602081101561055a57600080fd5b81019080803573ffffffffffffffffffffffffffffffffffffffff169060200190929190505050610a65565b005b6000604051806080016040528085815260200184815260200160008152602001838152509080600181540180825580915050906001820390600052602060002090600402016000909192909190915060008201518160000190805190602001906105f3929190610aa9565b5060208201518160010155604082015181600201556060820151816003019080519060200190610624929190610aa9565b50505050505050565b606060018054600181600116156101000203166002900480601f0160208091040260200160405190810160405280929190818152602001828054600181600116156101000203166002900480156106c55780601f1061069a576101008083540402835291602001916106c5565b820191906000526020600020905b8154815290600101906020018083116106a857829003601f168201915b5050505050905090565b600081815481106106dc57fe5b9060005260206000209060040201600091509050806000018054600181600116156101000203166002900480601f0160208091040260200160405190810160405280929190818152602001828054600181600116156101000203166002900480156107885780601f1061075d57610100808354040283529160200191610788565b820191906000526020600020905b81548152906001019060200180831161076b57829003601f168201915b505050505090806001015490806002015490806003018054600181600116156101000203166002900480601f0160208091040260200160405190810160405280929190818152602001828054600181600116156101000203166002900480156108325780601f1061080757610100808354040283529160200191610832565b820191906000526020600020905b81548152906001019060200180831161081557829003601f168201915b5050505050905084565b6000600260009054906101000a900473ffffffffffffffffffffffffffffffffffffffff16905090565b60008080549050905090565b606060008060606000858154811061088657fe5b90600052602060002090600402016000018054600181600116156101000203166002900480601f01602080910402602001604051908101604052809291908181526020018280546001816001161561010002031660029004801561092b5780601f106109005761010080835404028352916020019161092b565b820191906000526020600020905b81548152906001019060200180831161090e57829003601f168201915b505050505093506000858154811061093f57fe5b90600052602060002090600402016001015492506000858154811061096057fe5b90600052602060002090600402016002015491506000858154811061098157fe5b90600052602060002090600402016003018054600181600116156101000203166002900480601f016020809104026020016040519081016040528092919081815260200182805460018160011615610100020316600290048015610a265780601f106109fb57610100808354040283529160200191610a26565b820191906000526020600020905b815481529060010190602001808311610a0957829003601f168201915b505050505090509193509193565b60008181548110610a4157fe5b90600052602060002090600402016002016000815480929190600101919050555050565b80600360006101000a81548173ffffffffffffffffffffffffffffffffffffffff021916908373ffffffffffffffffffffffffffffffffffffffff16021790555050565b828054600181600116156101000203166002900490600052602060002090601f016020900481019282601f10610aea57805160ff1916838001178555610b18565b82800160010185558215610b18579182015b82811115610b17578251825591602001919060010190610afc565b5b509050610b259190610b29565b5090565b610b4b91905b80821115610b47576000816000905550600101610b2f565b5090565b9056fea265627a7a7231582066620528ed77aea6129814045a67782b2f200eaefd27280af643848349a8772a64736f6c634300051000325468697320417574686f72206e616d6520697320616c726561647920726567697374657265642e2e2e506c656173652063686f6f7365206f74686572206e616d65203a305468697320526561646572206e616d6520697320616c726561647920726567697374657265642e2e2e506c656173652063686f6f7365206f74686572206e616d65203a30a265627a7a7231582065e8f5b38d45105f3b773314858574559c277e79051c8fdfef47ee40c7d5e01464736f6c63430005100032",
  "source": "pragma solidity 0.5.16;\n\n\ncontract Publisher{\n\n    mapping(address=>Author) private authorsLookup;\n    mapping(string=>address) private findAuthorAddress;\n    mapping(address=>string) private findAuthorName;\n    string[] public allAuthorName;\n    address[] public allAuthorAddress;\n\n    mapping(address=>Buyer) private buyersLookup;\n    mapping(string=>address) private findBuyerAddress;\n    mapping(address=>string) private findBuyerName;\n    string[] public allBuyerName;\n    address[] public allBuyerAddress;\n\n    //modifier to check if given author name is already exist\n    modifier checkExistAuthorName(string memory _authorName){\n        bool _status = false;\n        uint len = allAuthorName.length;\n        for(uint i=0 ; i<len ; i++){\n            if(keccak256(abi.encodePacked(allAuthorName[i])) == keccak256(abi.encodePacked(_authorName))){\n                _status = true;\n            }\n        }\n        require(_status == false, \"This Author name is already registered...Please choose other name :0\");\n        _;\n    }\n\n    //modifier to check if given Reader name is already exist\n    modifier checkExistBuyerName(string memory _buyerName){\n        bool _status = false;\n        uint len = allBuyerName.length;\n        for(uint i=0 ; i<len ; i++){\n            if(keccak256(abi.encodePacked(allBuyerName[i])) == keccak256(abi.encodePacked(_buyerName))){\n                _status = true;\n            }\n        }\n        require(_status == false, \"This Reader name is already registered...Please choose other name :0\");\n        _;\n    }\n\n\n    function registerAuthor(string memory _authorName) checkExistAuthorName(_authorName) public {\n       Author author = new Author(_authorName); \n       authorsLookup[msg.sender] = author;\n       findAuthorAddress[_authorName] = msg.sender;\n       findAuthorName[msg.sender] = _authorName;\n       author.setAuthorAddress(msg.sender);\n       allAuthorAddress.push(msg.sender);\n       allAuthorName.push(_authorName);\n    }\n    \n    function registerBuyer(string memory _buyerName) checkExistBuyerName(_buyerName) public {\n        Buyer buyer = new Buyer(_buyerName);\n        buyersLookup[msg.sender] = buyer;\n        findBuyerAddress[_buyerName] = msg.sender;\n        findBuyerName[msg.sender] = _buyerName;\n        allBuyerAddress.push(msg.sender);\n        allBuyerName.push(_buyerName);\n    }\n    \n    function checkExistenceOfAuthor() public view returns(bool _status){\n        _status = false;\n        uint len = allAuthorAddress.length;\n        for(uint i=0 ; i<len ; i++){\n            if(allAuthorAddress[i]==msg.sender){\n                _status = true;\n            }\n        }\n    }\n    \n    function checkExistenceOfBuyer() public view returns(bool _status){\n        _status = false;\n        uint len = allBuyerAddress.length;\n        for(uint i=0 ; i<len ; i++){\n            if(allBuyerAddress[i]==msg.sender){\n                _status = true;\n            }\n        }\n    }\n    \n    function registerBook(string memory _bookName,uint _rate,string memory _hash)  public{\n        authorsLookup[msg.sender].registerBook(_bookName,_rate,_hash);        \n    }\n    \n    function getAllAuthorBooks() public view returns(uint _totalBooks){\n        _totalBooks = authorsLookup[msg.sender].getAllAuthorBooks();\n    }\n\n    function getAllAuthorBooksByName(string memory _authorName) public view returns(uint _totalBooks){\n        _totalBooks = authorsLookup[findAuthorAddress[_authorName]].getAllAuthorBooks();\n    }\n\n\n    function getAuthorBookById(string memory _authorName, uint id) public view returns(string memory _bookName,uint _rate,uint _soldCount,string memory _hash){\n        (_bookName,_rate,_soldCount,_hash) = authorsLookup[findAuthorAddress[_authorName]].getAuthorBookById(id);\n    }\n    \n    function buyBookById1(string memory _authorName) public payable{\n        address(uint160(findAuthorAddress[_authorName])).transfer(msg.value);\n    }\n\n    function buyBookById2(string memory _authorName,uint _id,string memory _bookName,string memory _hash) public{\n        authorsLookup[findAuthorAddress[_authorName]].buyBookById(_id);\n        buyersLookup[msg.sender].buyBook(_authorName,_bookName,_hash);\n    }\n    \n    function getAllBuyerBook() public view returns(uint _totalBooks){\n        _totalBooks = buyersLookup[msg.sender].getAllBuyerBook();\n    }\n\n    function getAllBuyerBookByName(string memory _buyerName) public view returns(uint _totalBooks){\n        _totalBooks = buyersLookup[findBuyerAddress[_buyerName]].getAllBuyerBook();\n    }\n\n\n    function getBuyerBookById(uint _id) public view returns(string memory _authorName,string memory _bookName,string memory _hash){\n        (_authorName,_bookName,_hash) = buyersLookup[msg.sender].getBuyerBookById(_id); \n    }\n    \n    function getBuyerName() public view returns(string memory _buyerName){\n        _buyerName = buyersLookup[msg.sender].getBuyerName();\n    }\n    \n    function getAuthorName() public view returns(string memory _authorName){\n        _authorName = authorsLookup[msg.sender].getAuthorName();\n    }\n\n    function getAuthorNameById(uint _id) public view returns(string memory _authorName){\n        _authorName = allAuthorName[_id];\n    }\n\n    function getReaderNameById(uint _id) public view returns(string memory _buyerName){\n        _buyerName = allBuyerName[_id];\n    }\n\n    function totalAuthor() public view returns(uint _totalAuthor){\n        _totalAuthor = allAuthorAddress.length;\n    }\n\n    function totalReader() public view returns(uint _totalBuyer){\n        _totalBuyer = allBuyerAddress.length;\n    }\n\n}\n\ncontract Buyer{\n    struct Book{\n        string authorName;\n        string bookName;\n        string bookHash;\n    }\n    \n    Book[] public books;\n    \n    string public buyerName;\n    \n    constructor(string memory _buyerName) public{\n        buyerName = _buyerName;\n    }\n    \n    function getBuyerName() public view returns(string memory _buyerName){\n        _buyerName = buyerName;\n    }\n    \n    function buyBook(string memory _authorName,string memory _bookName,string memory _hash) public{\n        books.push(Book(_authorName,_bookName,_hash));\n    }\n    \n    function getBuyerBookById(uint _id) public view returns(string memory _authorName,string memory _bookName,string memory _hash){\n        _authorName = books[_id].authorName;\n        _bookName = books[_id].bookName;\n        _hash = books[_id].bookHash;\n    }\n\n    function getAllBuyerBook() public view returns(uint _totalBooks){\n        _totalBooks = books.length;\n    }\n}\n\ncontract Author{\n    \n    struct Book{\n        string name;\n        uint rate;\n        uint soldCount;\n        string bookHash;\n    }\n    \n    Book[] public books;\n\n    string authorName;\n\n    address authorContractAddress;\n\n    address payable authorAddress;\n\n    constructor(string memory _authorName) public{\n        authorName = _authorName;\n        authorContractAddress = address(this);\n    }\n\n    function setAuthorAddress(address payable _address) public{\n        authorAddress = _address;\n    }\n\n    function getAuthorContractAddress() public view returns(address _address){\n        _address = authorContractAddress;\n    }\n    \n    function getAuthorName() public view returns(string memory _authorName){\n        _authorName = authorName;\n    }\n\n    function buyBookById(uint _id) public{\n        books[_id].soldCount++;\n    }\n    \n    function registerBook(string memory _bookName, uint _rate,string memory _hash) public{\n        books.push(Book(_bookName,_rate,0,_hash));\n    }\n    \n    function getAuthorBookById(uint _id) public view returns(string memory _bookName,uint _rate,uint _soldCount,string memory _hash){\n        _bookName = books[_id].name;\n        _rate = books[_id].rate;\n        _soldCount = books[_id].soldCount;\n        _hash = books[_id].bookHash;\n    }\n    \n    function getAllAuthorBooks() public view returns(uint _totalBooks){\n        _totalBooks = books.length;\n    }\n}\n\n",
  "sourcePath": "/home/snakode/ipfs/contracts/Publisher.sol",
  "compiler": {
    "name": "solc",
    "version": "0.5.16+commit.9c3226ce.Emscripten.clang"
  },
  "schemaVersion": "3.1.0",
  "updatedAt": "2020-04-29T03:52:03.168Z",
  "networkType": "ethereum",
  "devdoc": {
    "methods": {}
  },
  "userdoc": {
    "methods": {}
  }
}